:1003020053B1FB43B2041200037F007EF8120235A0
:100312007FE87E031203D97FE87E031203D97FE0D0
:100322007E071202357FE87E031203D97FE87E033F
:100332001203D97F1F7E001202357FE87E0312036B
:0A034200D97FE87E031203D980BFC3
:1003D900E4FDFCC3ED9FEE6480F8EC648098501551
:1003E900E4FBFA0BBB00010ABA03F8BBE8F50DBD43
:0503F90000010C80DE94
:0103FE0022DC
:1003FF00E4FDFCC3ED9FEE6480F8EC64809850152B
:10040F00E4FBFA0BBB00010AEB64014A70F50DBD6A
:05041F0000010C80DE6D
:0104240022B5
:030000000201A951
:0C01A900787FE4F6D8FD7581070201F0B4
:0A048F004200000000420002FFFFDF
:08045B0090000DE0FEA3E0FF9C
:0D046300C292C2938FA0C291D291D2932277
:07047000120463FF12047780
:0D047700D292C2938FA0C291D291D2932253
:10042500AD07AC06D292C293ECFF8FA0C291D291D8
:0B043500AF058FA0C291D291D293229C
:0A049A00120463AE04AF05020477FC
:0B04840090000BE0FEA3E0FF02046309
:08023500900011EEF0A3EFF0C0
:10023D00900005E024FFFB900004E034FFFA9000ED
:10024D0007E024FFFE900006E034FF90001BF0A3B2
:10025D00CEF0E4FDFCFFFE1202B6E4900013F0A315
:10026D00F0900004E0FEA3E0FFC3900014E09F9027
:10027D000013E09E5032E4FBFAD3900007E09B9010
:10028D000006E09A4012900011E0FEA3E0FF120478
:10029D00250BBB00010A80E1900014E004F070C151
:0802AD00900013E004F080B999
:0102B5002226
:10038500AB07AA068D828C83C006C007AE83AF82F9
:1003950090001BEEF0A3EFF0D007D0061202B69046
:0A03A5000000E0FEA3E0FF02047771
:10044000D2B37F327E001203D9C2B37F327E001254
:0B04500003D9D2B37F327E000203D933
:10000300120440D2907FCF7E00120463E4FF1204F7
:10001300777FC11204777F301204777FED12046378
:100023007F641204777F031204777F121204777FB1
:10003300811204777FE81204637F851204777F10AF
:100043001204777F7A1204777FCB1204637F39120D
:1000530004777F2C120477FF1204777F341204771E
:100063007F021204777FF71204637F201204777FE5
:10007300EA1204707FC01204637F1B1204777FC1EE
:100083001204637F011204777FC51204637F301269
:1000930004771204777FC71204637FB71204777F54
:1000A300361204637F481204777F3A1204637F5544
:1000B3001204777FB1120463FF1204777F1A1204CC
:1000C300777FB61204637F0A1204777FA212047744
:1000D3007FF2120463FF1204777F261204637F0109
:1000E3001204777FE01204637F0F1204777F2A12D2
:1000F30004777F281204777F081204777F0E120497
:10010300777F081204777F541204777FA91204774C
:100113007F431204777F0A1204777F0F120477124A
:1001230004731204771204777FE1120463FF12044D
:10013300777F151204777F171204777F07120477EE
:100143007F111204777F061204777F2B1204777FC7
:10015300561204777F3C1204777F051204777F10D1
:100163001204771F1204777F3F1204771204777FFC
:100173000F1204777F2B1204700F1204777F3F1244
:1001830004777F2A1204701204777FEF1204777FBB
:10019300111204637F781203D97F297E001204634E
:0601A30012034CD2B2224F
:1002B600900015EEF0A3EFF012045B900015E0FF3E
:1002C6007E00120477A3E0FF120477EAFF12047798
:1002D600AF037E0012047790000F12045EECFF7EDF
:1002E60000120477AF057E0012047790001BE0FF32
:0C02F600120477A3E0FF120477020484D6
:1003AF00AB07AA0612045BEAFF7E00120477AF03C5
:1003BF007E00120477A312045EECFF7E0012047716
:0A03CF00AF057E00120477020484DB
:10034C0090000BE4F0A3742CF090000A7401F09070
:10035C000004F0A37440F0A3E4F0A374F0F0900058
:10036C000DE4F0A3742AF0A3E4F0A3742BF07D6CDD
:09037C007C007F367E0002049A29
:1001B500020302E493A3F8E493A34003F68001F25B
:1001C50008DFF48029E493A3F85407240CC8C3334B
:1001D500C4540F4420C8834004F456800146F6DF1A
:1001E500E4800B010204081020408090048FE47E17
:1001F500019360BCA3FF543F30E509541FFEE4930F
:10020500A360010ECF54C025E060A840B8E493A3D5
:10021500FAE493A3F8E493A3C8C582C8CAC583CA00
:10022500F0A3C8C582C8CAC583CADFE9DEE780BEB8
:010499000062
:00000001FF
